{
  "_format": "hh-sol-artifact-1",
  "contractName": "RewardRouterMT",
  "sourceName": "contracts/staking/RewardRouterMT.sol",
  "abi": [
    {
      "anonymous": false,
      "inputs": [
        {
          "indexed": false,
          "internalType": "address",
          "name": "account",
          "type": "address"
        },
        {
          "indexed": false,
          "internalType": "uint256",
          "name": "amount",
          "type": "uint256"
        }
      ],
      "name": "StakeWlp",
      "type": "event"
    },
    {
      "anonymous": false,
      "inputs": [
        {
          "indexed": false,
          "internalType": "address",
          "name": "account",
          "type": "address"
        },
        {
          "indexed": false,
          "internalType": "address",
          "name": "token",
          "type": "address"
        },
        {
          "indexed": false,
          "internalType": "uint256",
          "name": "amount",
          "type": "uint256"
        }
      ],
      "name": "StakeWmx",
      "type": "event"
    },
    {
      "anonymous": false,
      "inputs": [
        {
          "indexed": false,
          "internalType": "address",
          "name": "account",
          "type": "address"
        },
        {
          "indexed": false,
          "internalType": "uint256",
          "name": "amount",
          "type": "uint256"
        }
      ],
      "name": "UnstakeWlp",
      "type": "event"
    },
    {
      "anonymous": false,
      "inputs": [
        {
          "indexed": false,
          "internalType": "address",
          "name": "account",
          "type": "address"
        },
        {
          "indexed": false,
          "internalType": "address",
          "name": "token",
          "type": "address"
        },
        {
          "indexed": false,
          "internalType": "uint256",
          "name": "amount",
          "type": "uint256"
        }
      ],
      "name": "UnstakeWmx",
      "type": "event"
    },
    {
      "inputs": [],
      "name": "BASIS_POINTS_DIVISOR",
      "outputs": [
        {
          "internalType": "uint256",
          "name": "",
          "type": "uint256"
        }
      ],
      "stateMutability": "view",
      "type": "function"
    },
    {
      "inputs": [
        {
          "internalType": "address",
          "name": "_sender",
          "type": "address"
        }
      ],
      "name": "acceptTransfer",
      "outputs": [],
      "stateMutability": "nonpayable",
      "type": "function"
    },
    {
      "inputs": [
        {
          "internalType": "address[]",
          "name": "_accounts",
          "type": "address[]"
        }
      ],
      "name": "batchCompoundForAccounts",
      "outputs": [],
      "stateMutability": "nonpayable",
      "type": "function"
    },
    {
      "inputs": [
        {
          "internalType": "address[]",
          "name": "_accounts",
          "type": "address[]"
        },
        {
          "internalType": "uint256[]",
          "name": "_amounts",
          "type": "uint256[]"
        }
      ],
      "name": "batchStakeWmxForAccount",
      "outputs": [],
      "stateMutability": "nonpayable",
      "type": "function"
    },
    {
      "inputs": [],
      "name": "bnGmx",
      "outputs": [
        {
          "internalType": "address",
          "name": "",
          "type": "address"
        }
      ],
      "stateMutability": "view",
      "type": "function"
    },
    {
      "inputs": [],
      "name": "bonusGmxTracker",
      "outputs": [
        {
          "internalType": "address",
          "name": "",
          "type": "address"
        }
      ],
      "stateMutability": "view",
      "type": "function"
    },
    {
      "inputs": [],
      "name": "claim",
      "outputs": [],
      "stateMutability": "nonpayable",
      "type": "function"
    },
    {
      "inputs": [],
      "name": "claimEsWmx",
      "outputs": [],
      "stateMutability": "nonpayable",
      "type": "function"
    },
    {
      "inputs": [],
      "name": "claimFees",
      "outputs": [],
      "stateMutability": "nonpayable",
      "type": "function"
    },
    {
      "inputs": [],
      "name": "compound",
      "outputs": [],
      "stateMutability": "nonpayable",
      "type": "function"
    },
    {
      "inputs": [
        {
          "internalType": "address",
          "name": "_account",
          "type": "address"
        }
      ],
      "name": "compoundForAccount",
      "outputs": [],
      "stateMutability": "nonpayable",
      "type": "function"
    },
    {
      "inputs": [],
      "name": "esGmx",
      "outputs": [
        {
          "internalType": "address",
          "name": "",
          "type": "address"
        }
      ],
      "stateMutability": "view",
      "type": "function"
    },
    {
      "inputs": [],
      "name": "feeGlpTracker",
      "outputs": [
        {
          "internalType": "address",
          "name": "",
          "type": "address"
        }
      ],
      "stateMutability": "view",
      "type": "function"
    },
    {
      "inputs": [],
      "name": "feeGmxTracker",
      "outputs": [
        {
          "internalType": "address",
          "name": "",
          "type": "address"
        }
      ],
      "stateMutability": "view",
      "type": "function"
    },
    {
      "inputs": [],
      "name": "glp",
      "outputs": [
        {
          "internalType": "address",
          "name": "",
          "type": "address"
        }
      ],
      "stateMutability": "view",
      "type": "function"
    },
    {
      "inputs": [],
      "name": "glpManager",
      "outputs": [
        {
          "internalType": "address",
          "name": "",
          "type": "address"
        }
      ],
      "stateMutability": "view",
      "type": "function"
    },
    {
      "inputs": [],
      "name": "glpVester",
      "outputs": [
        {
          "internalType": "address",
          "name": "",
          "type": "address"
        }
      ],
      "stateMutability": "view",
      "type": "function"
    },
    {
      "inputs": [],
      "name": "gmx",
      "outputs": [
        {
          "internalType": "address",
          "name": "",
          "type": "address"
        }
      ],
      "stateMutability": "view",
      "type": "function"
    },
    {
      "inputs": [],
      "name": "gmxVester",
      "outputs": [
        {
          "internalType": "address",
          "name": "",
          "type": "address"
        }
      ],
      "stateMutability": "view",
      "type": "function"
    },
    {
      "inputs": [],
      "name": "gov",
      "outputs": [
        {
          "internalType": "address",
          "name": "",
          "type": "address"
        }
      ],
      "stateMutability": "view",
      "type": "function"
    },
    {
      "inputs": [],
      "name": "govToken",
      "outputs": [
        {
          "internalType": "address",
          "name": "",
          "type": "address"
        }
      ],
      "stateMutability": "view",
      "type": "function"
    },
    {
      "inputs": [
        {
          "internalType": "bool",
          "name": "_shouldClaimGmx",
          "type": "bool"
        },
        {
          "internalType": "bool",
          "name": "_shouldStakeGmx",
          "type": "bool"
        },
        {
          "internalType": "bool",
          "name": "_shouldClaimEsGmx",
          "type": "bool"
        },
        {
          "internalType": "bool",
          "name": "_shouldStakeEsGmx",
          "type": "bool"
        },
        {
          "internalType": "bool",
          "name": "_shouldStakeMultiplierPoints",
          "type": "bool"
        },
        {
          "internalType": "bool",
          "name": "_shouldClaimWeth",
          "type": "bool"
        }
      ],
      "name": "handleRewards",
      "outputs": [],
      "stateMutability": "nonpayable",
      "type": "function"
    },
    {
      "inputs": [],
      "name": "inStrictTransferMode",
      "outputs": [
        {
          "internalType": "bool",
          "name": "",
          "type": "bool"
        }
      ],
      "stateMutability": "view",
      "type": "function"
    },
    {
      "inputs": [
        {
          "internalType": "address",
          "name": "_weth",
          "type": "address"
        },
        {
          "internalType": "address",
          "name": "_gmx",
          "type": "address"
        },
        {
          "internalType": "address",
          "name": "_esGmx",
          "type": "address"
        },
        {
          "internalType": "address",
          "name": "_bnGmx",
          "type": "address"
        },
        {
          "internalType": "address",
          "name": "_glp",
          "type": "address"
        },
        {
          "internalType": "address",
          "name": "_stakedGmxTracker",
          "type": "address"
        },
        {
          "internalType": "address",
          "name": "_bonusGmxTracker",
          "type": "address"
        },
        {
          "internalType": "address",
          "name": "_feeGmxTracker",
          "type": "address"
        },
        {
          "internalType": "address",
          "name": "_feeGlpTracker",
          "type": "address"
        },
        {
          "internalType": "address",
          "name": "_stakedGlpTracker",
          "type": "address"
        },
        {
          "internalType": "address",
          "name": "_glpManager",
          "type": "address"
        },
        {
          "internalType": "address",
          "name": "_gmxVester",
          "type": "address"
        },
        {
          "internalType": "address",
          "name": "_glpVester",
          "type": "address"
        },
        {
          "internalType": "address",
          "name": "_govToken",
          "type": "address"
        }
      ],
      "name": "initialize",
      "outputs": [],
      "stateMutability": "nonpayable",
      "type": "function"
    },
    {
      "inputs": [],
      "name": "isInitialized",
      "outputs": [
        {
          "internalType": "bool",
          "name": "",
          "type": "bool"
        }
      ],
      "stateMutability": "view",
      "type": "function"
    },
    {
      "inputs": [],
      "name": "maxBoostBasisPoints",
      "outputs": [
        {
          "internalType": "uint256",
          "name": "",
          "type": "uint256"
        }
      ],
      "stateMutability": "view",
      "type": "function"
    },
    {
      "inputs": [
        {
          "internalType": "address",
          "name": "",
          "type": "address"
        }
      ],
      "name": "pendingReceivers",
      "outputs": [
        {
          "internalType": "address",
          "name": "",
          "type": "address"
        }
      ],
      "stateMutability": "view",
      "type": "function"
    },
    {
      "inputs": [
        {
          "internalType": "address",
          "name": "_gov",
          "type": "address"
        }
      ],
      "name": "setGov",
      "outputs": [],
      "stateMutability": "nonpayable",
      "type": "function"
    },
    {
      "inputs": [
        {
          "internalType": "bool",
          "name": "_inStrictTransferMode",
          "type": "bool"
        }
      ],
      "name": "setInStrictTransferMode",
      "outputs": [],
      "stateMutability": "nonpayable",
      "type": "function"
    },
    {
      "inputs": [
        {
          "internalType": "uint256",
          "name": "_maxBoostBasisPoints",
          "type": "uint256"
        }
      ],
      "name": "setMaxBoostBasisPoints",
      "outputs": [],
      "stateMutability": "nonpayable",
      "type": "function"
    },
    {
      "inputs": [
        {
          "internalType": "enum RewardRouterMT.VotingPowerType",
          "name": "_votingPowerType",
          "type": "uint8"
        }
      ],
      "name": "setVotingPowerType",
      "outputs": [],
      "stateMutability": "nonpayable",
      "type": "function"
    },
    {
      "inputs": [
        {
          "internalType": "address",
          "name": "_receiver",
          "type": "address"
        }
      ],
      "name": "signalTransfer",
      "outputs": [],
      "stateMutability": "nonpayable",
      "type": "function"
    },
    {
      "inputs": [
        {
          "internalType": "uint256",
          "name": "_amount",
          "type": "uint256"
        }
      ],
      "name": "stakeEsWmx",
      "outputs": [],
      "stateMutability": "nonpayable",
      "type": "function"
    },
    {
      "inputs": [
        {
          "internalType": "uint256",
          "name": "_amount",
          "type": "uint256"
        }
      ],
      "name": "stakeWmx",
      "outputs": [],
      "stateMutability": "nonpayable",
      "type": "function"
    },
    {
      "inputs": [
        {
          "internalType": "address",
          "name": "_account",
          "type": "address"
        },
        {
          "internalType": "uint256",
          "name": "_amount",
          "type": "uint256"
        }
      ],
      "name": "stakeWmxForAccount",
      "outputs": [],
      "stateMutability": "nonpayable",
      "type": "function"
    },
    {
      "inputs": [],
      "name": "stakedGlpTracker",
      "outputs": [
        {
          "internalType": "address",
          "name": "",
          "type": "address"
        }
      ],
      "stateMutability": "view",
      "type": "function"
    },
    {
      "inputs": [],
      "name": "stakedGmxTracker",
      "outputs": [
        {
          "internalType": "address",
          "name": "",
          "type": "address"
        }
      ],
      "stateMutability": "view",
      "type": "function"
    },
    {
      "inputs": [
        {
          "internalType": "uint256",
          "name": "_amount",
          "type": "uint256"
        }
      ],
      "name": "unstakeEsWmx",
      "outputs": [],
      "stateMutability": "nonpayable",
      "type": "function"
    },
    {
      "inputs": [
        {
          "internalType": "uint256",
          "name": "_amount",
          "type": "uint256"
        }
      ],
      "name": "unstakeWmx",
      "outputs": [],
      "stateMutability": "nonpayable",
      "type": "function"
    },
    {
      "inputs": [],
      "name": "votingPowerType",
      "outputs": [
        {
          "internalType": "enum RewardRouterMT.VotingPowerType",
          "name": "",
          "type": "uint8"
        }
      ],
      "stateMutability": "view",
      "type": "function"
    },
    {
      "inputs": [],
      "name": "weth",
      "outputs": [
        {
          "internalType": "address",
          "name": "",
          "type": "address"
        }
      ],
      "stateMutability": "view",
      "type": "function"
    },
    {
      "inputs": [
        {
          "internalType": "address",
          "name": "_token",
          "type": "address"
        },
        {
          "internalType": "address",
          "name": "_account",
          "type": "address"
        },
        {
          "internalType": "uint256",
          "name": "_amount",
          "type": "uint256"
        }
      ],
      "name": "withdrawToken",
      "outputs": [],
      "stateMutability": "nonpayable",
      "type": "function"
    },
    {
      "stateMutability": "payable",
      "type": "receive"
    }
  ],
  "bytecode": "0x608060405234801561001057600080fd5b506001600081905580546001600160a01b031916331790556154ed806100376000396000f3fe6080604052600436106101e55760003560e01c806301e336671461024957806305268cff1461028c57806308694e63146102bd5780630ce4018a146102f3578063126082cf1461030857806312d43a511461032f5780631af276a6146103445780631fcd60e5146103f257806320dd0243146104075780632a9f40831461044057806331e67c711461047357806335c1b188146104885780633671df25146104b2578063392e53cd146104c75780633ec225b6146104f05780633fc8cef31461051a57806341d315b41461052f5780634e71d92d1461054457806351c3e3b414610559578063655603a41461056e57806365f8f4d0146105a15780636a192a78146105cd57806371302627146105e2578063718f243014610684578063743655ab146106d857806378a207ee146106ed5780638257785a1461070257806389aae68714610832578063a0502b341461085c578063af394d0014610886578063ba2db4f51461089b578063c7c40b58146108c8578063cfad57a2146108f2578063d294f09314610925578063dddfa3141461093a578063e102f5641461094f578063e1b9db8914610964578063e1c363b714610997578063ef9aacfd146109ac578063f69e2046146109df578063fa6db1bc146109f4578063fcbc611f14610a0957610244565b36610244576002546001600160a01b03163314610242576040805162461bcd60e51b81526020600482015260166024820152752937baba32b91d1034b73b30b634b21039b2b73232b960511b604482015290519081900360640190fd5b005b600080fd5b34801561025557600080fd5b506102426004803603606081101561026c57600080fd5b506001600160a01b03813581169160208101359091169060400135610a1e565b34801561029857600080fd5b506102a1610a84565b604080516001600160a01b039092168252519081900360200190f35b3480156102c957600080fd5b506102d2610a98565b604051808260028111156102e257fe5b815260200191505060405180910390f35b3480156102ff57600080fd5b506102a1610aa8565b34801561031457600080fd5b5061031d610ab7565b60408051918252519081900360200190f35b34801561033b57600080fd5b506102a1610abd565b34801561035057600080fd5b506102426004803603602081101561036757600080fd5b810190602081018135600160201b81111561038157600080fd5b82018360208201111561039357600080fd5b803590602001918460208302840111600160201b831117156103b457600080fd5b919080806020026020016040519081016040528093929190818152602001838360200280828437600092019190915250929550610acc945050505050565b3480156103fe57600080fd5b506102a1610b9d565b34801561041357600080fd5b506102426004803603604081101561042a57600080fd5b506001600160a01b038135169060200135610bac565b34801561044c57600080fd5b506102426004803603602081101561046357600080fd5b50356001600160a01b0316610c5e565b34801561047f57600080fd5b506102a1610d07565b34801561049457600080fd5b50610242600480360360208110156104ab57600080fd5b5035610d16565b3480156104be57600080fd5b506102a1610d68565b3480156104d357600080fd5b506104dc610d77565b604080519115158252519081900360200190f35b3480156104fc57600080fd5b506102426004803603602081101561051357600080fd5b5035610d87565b34801561052657600080fd5b506102a1610dec565b34801561053b57600080fd5b506102a1610dfb565b34801561055057600080fd5b50610242610e0a565b34801561056557600080fd5b506102a16112a7565b34801561057a57600080fd5b506102426004803603602081101561059157600080fd5b50356001600160a01b03166112b6565b3480156105ad57600080fd5b50610242600480360360208110156105c457600080fd5b50351515611e49565b3480156105d957600080fd5b506102a1611ea9565b3480156105ee57600080fd5b5061024260048036036101c081101561060657600080fd5b506001600160a01b038135811691602081013582169160408201358116916060810135821691608082013581169160a081013582169160c082013581169160e08101358216916101008201358116916101208101358216916101408201358116916101608101358216916101808201358116916101a0013516611eb8565b34801561069057600080fd5b50610242600480360360c08110156106a757600080fd5b508035151590602081013515159060408101351515906060810135151590608081013515159060a0013515156121a6565b3480156106e457600080fd5b506104dc61280c565b3480156106f957600080fd5b506102a1612815565b34801561070e57600080fd5b506102426004803603604081101561072557600080fd5b810190602081018135600160201b81111561073f57600080fd5b82018360208201111561075157600080fd5b803590602001918460208302840111600160201b8311171561077257600080fd5b9190808060200260200160405190810160405280939291908181526020018383602002808284376000920191909152509295949360208101935035915050600160201b8111156107c157600080fd5b8201836020820111156107d357600080fd5b803590602001918460208302840111600160201b831117156107f457600080fd5b919080806020026020016040519081016040528093929190818152602001838360200280828437600092019190915250929550612824945050505050565b34801561083e57600080fd5b506102426004803603602081101561085557600080fd5b5035612919565b34801561086857600080fd5b506102426004803603602081101561087f57600080fd5b503561297e565b34801561089257600080fd5b506102a16129e3565b3480156108a757600080fd5b50610242600480360360208110156108be57600080fd5b503560ff166129f2565b3480156108d457600080fd5b50610242600480360360208110156108eb57600080fd5b5035612a66565b3480156108fe57600080fd5b506102426004803603602081101561091557600080fd5b50356001600160a01b0316612acb565b34801561093157600080fd5b50610242612b3a565b34801561094657600080fd5b5061031d612ed5565b34801561095b57600080fd5b506102a1612edb565b34801561097057600080fd5b506102a16004803603602081101561098757600080fd5b50356001600160a01b0316612eea565b3480156109a357600080fd5b506102a1612f05565b3480156109b857600080fd5b50610242600480360360208110156109cf57600080fd5b50356001600160a01b0316612f14565b3480156109eb57600080fd5b50610242613264565b348015610a0057600080fd5b506102a16132bf565b348015610a1557600080fd5b506102426132ce565b6001546001600160a01b03163314610a6b576040805162461bcd60e51b81526020600482015260156024820152600080516020615407833981519152604482015290519081900360640190fd5b610a7f6001600160a01b0384168383613373565b505050565b60105461010090046001600160a01b031681565b601054600160a81b900460ff1681565b6007546001600160a01b031681565b61271081565b6001546001600160a01b031681565b60026000541415610b12576040805162461bcd60e51b815260206004820152601f60248201526000805160206153e7833981519152604482015290519081900360640190fd5b60026000556001546001600160a01b03163314610b64576040805162461bcd60e51b81526020600482015260156024820152600080516020615407833981519152604482015290519081900360640190fd5b60005b8151811015610b9457610b8c828281518110610b7f57fe5b60200260200101516133c5565b600101610b67565b50506001600055565b6008546001600160a01b031681565b60026000541415610bf2576040805162461bcd60e51b815260206004820152601f60248201526000805160206153e7833981519152604482015290519081900360640190fd5b60026000556001546001600160a01b03163314610c44576040805162461bcd60e51b81526020600482015260156024820152600080516020615407833981519152604482015290519081900360640190fd5b600354610b9490339084906001600160a01b0316846133e3565b60026000541415610ca4576040805162461bcd60e51b815260206004820152601f60248201526000805160206153e7833981519152604482015290519081900360640190fd5b60026000556001546001600160a01b03163314610cf6576040805162461bcd60e51b81526020600482015260156024820152600080516020615407833981519152604482015290519081900360640190fd5b610cff816133c5565b506001600055565b6003546001600160a01b031681565b6001546001600160a01b03163314610d63576040805162461bcd60e51b81526020600482015260156024820152600080516020615407833981519152604482015290519081900360640190fd5b600f55565b600e546001600160a01b031681565b600154600160a01b900460ff1681565b60026000541415610dcd576040805162461bcd60e51b815260206004820152601f60248201526000805160206153e7833981519152604482015290519081900360640190fd5b6002600055600454610cff90339081906001600160a01b0316846133e3565b6002546001600160a01b031681565b600d546001600160a01b031681565b60026000541415610e50576040805162461bcd60e51b815260206004820152601f60248201526000805160206153e7833981519152604482015290519081900360640190fd5b60026000908155600954604080516309f4173d60e11b8152336004820181905260248201819052915191936001600160a01b03909316926313e82e7a9260448084019382900301818387803b158015610ea857600080fd5b505af1158015610ebc573d6000803e3d6000fd5b505050506040513d6000823e601f3d908101601f191682016040908152811015610ee557600080fd5b8101908080516040519392919084600160201b821115610f0457600080fd5b908301906020820185811115610f1957600080fd5b82518660208202830111600160201b82111715610f3557600080fd5b82525081516020918201928201910280838360005b83811015610f62578181015183820152602001610f4a565b5050505090500160405260200180516040519392919084600160201b821115610f8a57600080fd5b908301906020820185811115610f9f57600080fd5b82518660208202830111600160201b82111715610fbb57600080fd5b82525081516020918201928201910280838360005b83811015610fe8578181015183820152602001610fd0565b50505050919091016040818152600b546309f4173d60e11b83526001600160a01b038a81166004850181905260248501529151911697506313e82e7a9650604480830196506000955090935090839003019050818387803b15801561104c57600080fd5b505af1158015611060573d6000803e3d6000fd5b505050506040513d6000823e601f3d908101601f19168201604090815281101561108957600080fd5b8101908080516040519392919084600160201b8211156110a857600080fd5b9083019060208201858111156110bd57600080fd5b82518660208202830111600160201b821117156110d957600080fd5b82525081516020918201928201910280838360005b838110156111065781810151838201526020016110ee565b5050505090500160405260200180516040519392919084600160201b82111561112e57600080fd5b90830190602082018581111561114357600080fd5b82518660208202830111600160201b8211171561115f57600080fd5b82525081516020918201928201910280838360005b8381101561118c578181015183820152602001611174565b505050509190910160408181526007546309f4173d60e11b83526001600160a01b038a81166004850181905260248501529151911697506313e82e7a965060448083019650602095509093509083900301905081600087803b1580156111f157600080fd5b505af1158015611205573d6000803e3d6000fd5b505050506040513d602081101561121b57600080fd5b5050600a54604080516309f4173d60e11b81526001600160a01b03848116600483018190526024830152915191909216916313e82e7a9160448083019260209291908290030181600087803b15801561127357600080fd5b505af1158015611287573d6000803e3d6000fd5b505050506040513d602081101561129d57600080fd5b5050600160005550565b6009546001600160a01b031681565b600260005414156112fc576040805162461bcd60e51b815260206004820152601f60248201526000805160206153e7833981519152604482015290519081900360640190fd5b6002600055600d54604080516370a0823160e01b81526001600160a01b038481166004830152915191909216916370a08231916024808301926020929190829003018186803b15801561134e57600080fd5b505afa158015611362573d6000803e3d6000fd5b505050506040513d602081101561137857600080fd5b5051156113ba576040805162461bcd60e51b8152602060048201526018602482015260008051602061546e833981519152604482015290519081900360640190fd5b600e54604080516370a0823160e01b81526001600160a01b038481166004830152915191909216916370a08231916024808301926020929190829003018186803b15801561140757600080fd5b505afa15801561141b573d6000803e3d6000fd5b505050506040513d602081101561143157600080fd5b505115611473576040805162461bcd60e51b8152602060048201526018602482015260008051602061546e833981519152604482015290519081900360640190fd5b6001600160a01b0381811660009081526011602052604090205433911681146114dc576040805162461bcd60e51b81526020600482015260166024820152751d1c985b9cd9995c881b9bdd081cda59db985b1b195960521b604482015290519081900360640190fd5b6001600160a01b038216600090815260116020526040902080546001600160a01b031916905561150b816135fe565b611514826133c5565b60075460035460408051637aeceb1f60e11b81526001600160a01b03868116600483015292831660248201529051600093929092169163f5d9d63e91604480820192602092909190829003018186803b15801561157057600080fd5b505afa158015611584573d6000803e3d6000fd5b505050506040513d602081101561159a57600080fd5b5051905080156115d8576003546115be9084906001600160a01b031683600061412e565b6003546115d890849084906001600160a01b0316846133e3565b6007546004805460408051637aeceb1f60e11b81526001600160a01b0388811694820194909452918316602483015251600093929092169163f5d9d63e91604480820192602092909190829003018186803b15801561163657600080fd5b505afa15801561164a573d6000803e3d6000fd5b505050506040513d602081101561166057600080fd5b50519050801561169e576004546116849085906001600160a01b031683600061412e565b60045461169e90859085906001600160a01b0316846133e3565b60095460055460408051637aeceb1f60e11b81526001600160a01b03888116600483015292831660248201529051600093929092169163f5d9d63e91604480820192602092909190829003018186803b1580156116fa57600080fd5b505afa15801561170e573d6000803e3d6000fd5b505050506040513d602081101561172457600080fd5b505190508015611831576009546005546040805163098bf59d60e01b81526001600160a01b038981166004830181905293811660248301526044820186905260648201939093529051919092169163098bf59d91608480830192600092919082900301818387803b15801561179857600080fd5b505af11580156117ac573d6000803e3d6000fd5b505060095460055460408051631e42d69b60e21b81526001600160a01b038b811660048301528a81166024830152928316604482015260648101879052905191909216935063790b5a6c9250608480830192600092919082900301818387803b15801561181857600080fd5b505af115801561182c573d6000803e3d6000fd5b505050505b6000600460009054906101000a90046001600160a01b03166001600160a01b03166370a08231876040518263ffffffff1660e01b815260040180826001600160a01b0316815260200191505060206040518083038186803b15801561189557600080fd5b505afa1580156118a9573d6000803e3d6000fd5b505050506040513d60208110156118bf57600080fd5b5051905080156119585760048054604080516323b872dd60e01b81526001600160a01b038a811694820194909452888416602482015260448101859052905192909116916323b872dd916064808201926020929091908290030181600087803b15801561192b57600080fd5b505af115801561193f573d6000803e3d6000fd5b505050506040513d602081101561195557600080fd5b50505b600554604080516370a0823160e01b81526001600160a01b038981166004830152915160009392909216916370a0823191602480820192602092909190829003018186803b1580156119a957600080fd5b505afa1580156119bd573d6000803e3d6000fd5b505050506040513d60208110156119d357600080fd5b505190508015611ab85760055460408051632770a7eb60e21b81526001600160a01b038a811660048301526024820185905291519190921691639dc29fac91604480830192600092919082900301818387803b158015611a3257600080fd5b505af1158015611a46573d6000803e3d6000fd5b5050600554604080516340c10f1960e01b81526001600160a01b038b811660048301526024820187905291519190921693506340c10f199250604480830192600092919082900301818387803b158015611a9f57600080fd5b505af1158015611ab3573d6000803e3d6000fd5b505050505b600b5460065460408051637aeceb1f60e11b81526001600160a01b038b8116600483015292831660248201529051600093929092169163f5d9d63e91604480820192602092909190829003018186803b158015611b1457600080fd5b505afa158015611b28573d6000803e3d6000fd5b505050506040513d6020811015611b3e57600080fd5b505190508015611d4c57600a54600b546040805163098bf59d60e01b81526001600160a01b038c81166004830181905293811660248301526044820186905260648201939093529051919092169163098bf59d91608480830192600092919082900301818387803b158015611bb257600080fd5b505af1158015611bc6573d6000803e3d6000fd5b5050600b546006546040805163098bf59d60e01b81526001600160a01b038e8116600483018190529381166024830152604482018890526064820193909352905191909216935063098bf59d9250608480830192600092919082900301818387803b158015611c3457600080fd5b505af1158015611c48573d6000803e3d6000fd5b5050600b5460065460408051631e42d69b60e21b81526001600160a01b038e811660048301528d81166024830152928316604482015260648101879052905191909216935063790b5a6c9250608480830192600092919082900301818387803b158015611cb457600080fd5b505af1158015611cc8573d6000803e3d6000fd5b5050600a54600b5460408051631e42d69b60e21b81526001600160a01b038d8116600483018190526024830152928316604482015260648101879052905191909216935063790b5a6c9250608480830192600092919082900301818387803b158015611d3357600080fd5b505af1158015611d47573d6000803e3d6000fd5b505050505b600d5460408051630f713c2360e41b81526001600160a01b038b811660048301528a811660248301529151919092169163f713c23091604480830192600092919082900301818387803b158015611da257600080fd5b505af1158015611db6573d6000803e3d6000fd5b5050600e5460408051630f713c2360e41b81526001600160a01b038d811660048301528c81166024830152915191909216935063f713c2309250604480830192600092919082900301818387803b158015611e1057600080fd5b505af1158015611e24573d6000803e3d6000fd5b50505050611e31886146f8565b611e3a876146f8565b50506001600055505050505050565b6001546001600160a01b03163314611e96576040805162461bcd60e51b81526020600482015260156024820152600080516020615407833981519152604482015290519081900360640190fd5b6010805460ff1916911515919091179055565b6004546001600160a01b031681565b6001546001600160a01b03163314611f05576040805162461bcd60e51b81526020600482015260156024820152600080516020615407833981519152604482015290519081900360640190fd5b600154600160a01b900460ff1615611f5a576040805162461bcd60e51b8152602060048201526013602482015272185b1c9958591e481a5b9a5d1a585b1a5e9959606a1b604482015290519081900360640190fd5b60018060146101000a81548160ff0219169083151502179055508d600260006101000a8154816001600160a01b0302191690836001600160a01b031602179055508c600360006101000a8154816001600160a01b0302191690836001600160a01b031602179055508b600460006101000a8154816001600160a01b0302191690836001600160a01b031602179055508a600560006101000a8154816001600160a01b0302191690836001600160a01b0316021790555089600660006101000a8154816001600160a01b0302191690836001600160a01b0316021790555088600760006101000a8154816001600160a01b0302191690836001600160a01b0316021790555087600860006101000a8154816001600160a01b0302191690836001600160a01b0316021790555086600960006101000a8154816001600160a01b0302191690836001600160a01b0316021790555085600b60006101000a8154816001600160a01b0302191690836001600160a01b0316021790555084600a60006101000a8154816001600160a01b0302191690836001600160a01b0316021790555083600c60006101000a8154816001600160a01b0302191690836001600160a01b0316021790555082600d60006101000a8154816001600160a01b0302191690836001600160a01b0316021790555081600e60006101000a8154816001600160a01b0302191690836001600160a01b0316021790555080601060016101000a8154816001600160a01b0302191690836001600160a01b031602179055505050505050505050505050505050565b600260005414156121ec576040805162461bcd60e51b815260206004820152601f60248201526000805160206153e7833981519152604482015290519081900360640190fd5b600260009081553390871561231857600d54604080516309f4173d60e11b81526001600160a01b03858116600483018190526024830152915160009392909216916313e82e7a9160448082019260209290919082900301818787803b15801561225457600080fd5b505af1158015612268573d6000803e3d6000fd5b505050506040513d602081101561227e57600080fd5b5051600e54604080516309f4173d60e11b81526001600160a01b03878116600483018190526024830152915193945060009391909216916313e82e7a91604480830192602092919082900301818787803b1580156122db57600080fd5b505af11580156122ef573d6000803e3d6000fd5b505050506040513d602081101561230557600080fd5b505190506123138282614888565b925050505b8680156123255750600081115b156123445760035461234490839081906001600160a01b0316846133e3565b6000861561246957600754604080516309f4173d60e11b81526001600160a01b03868116600483018190526024830152915160009392909216916313e82e7a9160448082019260209290919082900301818787803b1580156123a557600080fd5b505af11580156123b9573d6000803e3d6000fd5b505050506040513d60208110156123cf57600080fd5b5051600a54604080516309f4173d60e11b81526001600160a01b03888116600483018190526024830152915193945060009391909216916313e82e7a91604480830192602092919082900301818787803b15801561242c57600080fd5b505af1158015612440573d6000803e3d6000fd5b505050506040513d602081101561245657600080fd5b505190506124648282614888565b925050505b8580156124765750600081115b156124955760045461249590849081906001600160a01b0316846133e3565b84156124a4576124a4836148e9565b83156127f357600954604080516309f4173d60e11b81526001600160a01b03868116600483018190526024830152915191909216916313e82e7a91604480830192600092919082900301818387803b1580156124ff57600080fd5b505af1158015612513573d6000803e3d6000fd5b505050506040513d6000823e601f3d908101601f19168201604090815281101561253c57600080fd5b8101908080516040519392919084600160201b82111561255b57600080fd5b90830190602082018581111561257057600080fd5b82518660208202830111600160201b8211171561258c57600080fd5b82525081516020918201928201910280838360005b838110156125b95781810151838201526020016125a1565b5050505090500160405260200180516040519392919084600160201b8211156125e157600080fd5b9083019060208201858111156125f657600080fd5b82518660208202830111600160201b8211171561261257600080fd5b82525081516020918201928201910280838360005b8381101561263f578181015183820152602001612627565b50505050919091016040818152600b546309f4173d60e11b83526001600160a01b038c81166004850181905260248501529151911697506313e82e7a9650604480830196506000955090935090839003019050818387803b1580156126a357600080fd5b505af11580156126b7573d6000803e3d6000fd5b505050506040513d6000823e601f3d908101601f1916820160409081528110156126e057600080fd5b8101908080516040519392919084600160201b8211156126ff57600080fd5b90830190602082018581111561271457600080fd5b82518660208202830111600160201b8211171561273057600080fd5b82525081516020918201928201910280838360005b8381101561275d578181015183820152602001612745565b5050505090500160405260200180516040519392919084600160201b82111561278557600080fd5b90830190602082018581111561279a57600080fd5b82518660208202830111600160201b821117156127b657600080fd5b82525081516020918201928201910280838360005b838110156127e35781810151838201526020016127cb565b5050505090500160405250505050505b6127fc836146f8565b5050600160005550505050505050565b60105460ff1681565b6006546001600160a01b031681565b6002600054141561286a576040805162461bcd60e51b815260206004820152601f60248201526000805160206153e7833981519152604482015290519081900360640190fd5b60026000556001546001600160a01b031633146128bc576040805162461bcd60e51b81526020600482015260156024820152600080516020615407833981519152604482015290519081900360640190fd5b6003546001600160a01b031660005b835181101561290e57612906338583815181106128e457fe5b6020026020010151848685815181106128f957fe5b60200260200101516133e3565b6001016128cb565b505060016000555050565b6002600054141561295f576040805162461bcd60e51b815260206004820152601f60248201526000805160206153e7833981519152604482015290519081900360640190fd5b6002600055600354610cff90339081906001600160a01b0316846133e3565b600260005414156129c4576040805162461bcd60e51b815260206004820152601f60248201526000805160206153e7833981519152604482015290519081900360640190fd5b6002600055600354610cff9033906001600160a01b031683600161412e565b600a546001600160a01b031681565b6001546001600160a01b03163314612a3f576040805162461bcd60e51b81526020600482015260156024820152600080516020615407833981519152604482015290519081900360640190fd5b6010805482919060ff60a81b1916600160a81b836002811115612a5e57fe5b021790555050565b60026000541415612aac576040805162461bcd60e51b815260206004820152601f60248201526000805160206153e7833981519152604482015290519081900360640190fd5b6002600055600454610cff9033906001600160a01b031683600161412e565b6001546001600160a01b03163314612b18576040805162461bcd60e51b81526020600482015260156024820152600080516020615407833981519152604482015290519081900360640190fd5b600180546001600160a01b0319166001600160a01b0392909216919091179055565b60026000541415612b80576040805162461bcd60e51b815260206004820152601f60248201526000805160206153e7833981519152604482015290519081900360640190fd5b60026000908155600954604080516309f4173d60e11b8152336004820181905260248201819052915191936001600160a01b03909316926313e82e7a9260448084019382900301818387803b158015612bd857600080fd5b505af1158015612bec573d6000803e3d6000fd5b505050506040513d6000823e601f3d908101601f191682016040908152811015612c1557600080fd5b8101908080516040519392919084600160201b821115612c3457600080fd5b908301906020820185811115612c4957600080fd5b82518660208202830111600160201b82111715612c6557600080fd5b82525081516020918201928201910280838360005b83811015612c92578181015183820152602001612c7a565b5050505090500160405260200180516040519392919084600160201b821115612cba57600080fd5b908301906020820185811115612ccf57600080fd5b82518660208202830111600160201b82111715612ceb57600080fd5b82525081516020918201928201910280838360005b83811015612d18578181015183820152602001612d00565b50505050919091016040818152600b546309f4173d60e11b83526001600160a01b038a81166004850181905260248501529151911697506313e82e7a9650604480830196506000955090935090839003019050818387803b158015612d7c57600080fd5b505af1158015612d90573d6000803e3d6000fd5b505050506040513d6000823e601f3d908101601f191682016040908152811015612db957600080fd5b8101908080516040519392919084600160201b821115612dd857600080fd5b908301906020820185811115612ded57600080fd5b82518660208202830111600160201b82111715612e0957600080fd5b82525081516020918201928201910280838360005b83811015612e36578181015183820152602001612e1e565b5050505090500160405260200180516040519392919084600160201b821115612e5e57600080fd5b908301906020820185811115612e7357600080fd5b82518660208202830111600160201b82111715612e8f57600080fd5b82525081516020918201928201910280838360005b83811015612ebc578181015183820152602001612ea4565b5050505091909101604052505060016000555050505050565b600f5481565b6005546001600160a01b031681565b6011602052600090815260409020546001600160a01b031681565b600b546001600160a01b031681565b60026000541415612f5a576040805162461bcd60e51b815260206004820152601f60248201526000805160206153e7833981519152604482015290519081900360640190fd5b6002600055600d54604080516370a0823160e01b815233600482015290516001600160a01b03909216916370a0823191602480820192602092909190829003018186803b158015612faa57600080fd5b505afa158015612fbe573d6000803e3d6000fd5b505050506040513d6020811015612fd457600080fd5b505115613016576040805162461bcd60e51b8152602060048201526018602482015260008051602061546e833981519152604482015290519081900360640190fd5b600e54604080516370a0823160e01b815233600482015290516001600160a01b03909216916370a0823191602480820192602092909190829003018186803b15801561306157600080fd5b505afa158015613075573d6000803e3d6000fd5b505050506040513d602081101561308b57600080fd5b5051156130cd576040805162461bcd60e51b8152602060048201526018602482015260008051602061546e833981519152604482015290519081900360640190fd5b6130d6816135fe565b60105460ff161561323057600954604080516310c1c10360e01b815233600482015290516000926001600160a01b0316916310c1c103916024808301926020929190829003018186803b15801561312c57600080fd5b505afa158015613140573d6000803e3d6000fd5b505050506040513d602081101561315657600080fd5b505160095460408051636eb1769f60e11b81523360048201526001600160a01b0386811660248301529151939450600093919092169163dd62ed3e916044808301926020929190829003018186803b1580156131b157600080fd5b505afa1580156131c5573d6000803e3d6000fd5b505050506040513d60208110156131db57600080fd5b505190508181101561322d576040805162461bcd60e51b8152602060048201526016602482015275696e73756666696369656e7420616c6c6f77616e636560501b604482015290519081900360640190fd5b50505b33600090815260116020526040812080546001600160a01b0319166001600160a01b03939093169290921790915560019055565b600260005414156132aa576040805162461bcd60e51b815260206004820152601f60248201526000805160206153e7833981519152604482015290519081900360640190fd5b60026000556132b8336133c5565b6001600055565b600c546001600160a01b031681565b60026000541415613314576040805162461bcd60e51b815260206004820152601f60248201526000805160206153e7833981519152604482015290519081900360640190fd5b60026000908155600754604080516309f4173d60e11b8152336004820181905260248201819052915191936001600160a01b03909316926313e82e7a926044808401936020939083900390910190829087803b1580156111f157600080fd5b604080516001600160a01b038416602482015260448082018490528251808303909101815260649091019091526020810180516001600160e01b031663a9059cbb60e01b179052610a7f908490614c6e565b6133ce81614d1f565b6133d781614dd3565b6133e0816146f8565b50565b6000811161342a576040805162461bcd60e51b815260206004820152600f60248201526e1a5b9d985b1a590817d85b5bdd5b9d608a1b604482015290519081900360640190fd5b60075460408051631e42d69b60e21b81526001600160a01b03878116600483015286811660248301528581166044830152606482018590529151919092169163790b5a6c91608480830192600092919082900301818387803b15801561348f57600080fd5b505af11580156134a3573d6000803e3d6000fd5b505060085460075460408051631e42d69b60e21b81526001600160a01b03898116600483018190526024830152928316604482015260648101879052905191909216935063790b5a6c9250608480830192600092919082900301818387803b15801561350e57600080fd5b505af1158015613522573d6000803e3d6000fd5b505060095460085460408051631e42d69b60e21b81526001600160a01b03898116600483018190526024830152928316604482015260648101879052905191909216935063790b5a6c9250608480830192600092919082900301818387803b15801561358d57600080fd5b505af11580156135a1573d6000803e3d6000fd5b505050506135ae836146f8565b604080516001600160a01b0380861682528416602082015280820183905290517fc9e118eb1cdd09fdfeb06305531abe317b8359df545064ce2b1f5568c8ef79e59181900360600190a150505050565b6007546040805163a318021760e01b81526001600160a01b0384811660048301529151919092169163a3180217916024808301926020929190829003018186803b15801561364b57600080fd5b505afa15801561365f573d6000803e3d6000fd5b505050506040513d602081101561367557600080fd5b5051156136b1576040805162461bcd60e51b815260206004820152600560248201526476616c303160d81b604482015290519081900360640190fd5b60075460408051633792def360e01b81526001600160a01b03848116600483015291519190921691633792def3916024808301926020929190829003018186803b1580156136fe57600080fd5b505afa158015613712573d6000803e3d6000fd5b505050506040513d602081101561372857600080fd5b505115613764576040805162461bcd60e51b81526020600482015260056024820152643b30b6181960d91b604482015290519081900360640190fd5b6008546040805163a318021760e01b81526001600160a01b0384811660048301529151919092169163a3180217916024808301926020929190829003018186803b1580156137b157600080fd5b505afa1580156137c5573d6000803e3d6000fd5b505050506040513d60208110156137db57600080fd5b505115613817576040805162461bcd60e51b815260206004820152600560248201526476616c303360d81b604482015290519081900360640190fd5b60085460408051633792def360e01b81526001600160a01b03848116600483015291519190921691633792def3916024808301926020929190829003018186803b15801561386457600080fd5b505afa158015613878573d6000803e3d6000fd5b505050506040513d602081101561388e57600080fd5b5051156138ca576040805162461bcd60e51b81526020600482015260056024820152641d985b0c0d60da1b604482015290519081900360640190fd5b6009546040805163a318021760e01b81526001600160a01b0384811660048301529151919092169163a3180217916024808301926020929190829003018186803b15801561391757600080fd5b505afa15801561392b573d6000803e3d6000fd5b505050506040513d602081101561394157600080fd5b50511561397d576040805162461bcd60e51b815260206004820152600560248201526476616c303560d81b604482015290519081900360640190fd5b60095460408051630b7812c160e01b81526001600160a01b03848116600483015291519190921691630b7812c1916024808301926020929190829003018186803b1580156139ca57600080fd5b505afa1580156139de573d6000803e3d6000fd5b505050506040513d60208110156139f457600080fd5b505115613a30576040805162461bcd60e51b81526020600482015260056024820152643b30b6181b60d91b604482015290519081900360640190fd5b600d5460408051631ccdc0d760e21b81526001600160a01b03848116600483015291519190921691637337035c916024808301926020929190829003018186803b158015613a7d57600080fd5b505afa158015613a91573d6000803e3d6000fd5b505050506040513d6020811015613aa757600080fd5b505115613ae3576040805162461bcd60e51b815260206004820152600560248201526476616c303760d81b604482015290519081900360640190fd5b600d5460408051635b8de71560e11b81526001600160a01b0384811660048301529151919092169163b71bce2a916024808301926020929190829003018186803b158015613b3057600080fd5b505afa158015613b44573d6000803e3d6000fd5b505050506040513d6020811015613b5a57600080fd5b505115613b96576040805162461bcd60e51b81526020600482015260056024820152640ecc2d860760db1b604482015290519081900360640190fd5b600a546040805163a318021760e01b81526001600160a01b0384811660048301529151919092169163a3180217916024808301926020929190829003018186803b158015613be357600080fd5b505afa158015613bf7573d6000803e3d6000fd5b505050506040513d6020811015613c0d57600080fd5b505115613c49576040805162461bcd60e51b815260206004820152600560248201526476616c303960d81b604482015290519081900360640190fd5b600a5460408051633792def360e01b81526001600160a01b03848116600483015291519190921691633792def3916024808301926020929190829003018186803b158015613c9657600080fd5b505afa158015613caa573d6000803e3d6000fd5b505050506040513d6020811015613cc057600080fd5b505115613cfc576040805162461bcd60e51b8152602060048201526005602482015264076616c31360dc1b604482015290519081900360640190fd5b600b546040805163a318021760e01b81526001600160a01b0384811660048301529151919092169163a3180217916024808301926020929190829003018186803b158015613d4957600080fd5b505afa158015613d5d573d6000803e3d6000fd5b505050506040513d6020811015613d7357600080fd5b505115613daf576040805162461bcd60e51b815260206004820152600560248201526476616c313160d81b604482015290519081900360640190fd5b600b5460408051630b7812c160e01b81526001600160a01b03848116600483015291519190921691630b7812c1916024808301926020929190829003018186803b158015613dfc57600080fd5b505afa158015613e10573d6000803e3d6000fd5b505050506040513d6020811015613e2657600080fd5b505115613e62576040805162461bcd60e51b81526020600482015260056024820152643b30b6189960d91b604482015290519081900360640190fd5b600e5460408051631ccdc0d760e21b81526001600160a01b03848116600483015291519190921691637337035c916024808301926020929190829003018186803b158015613eaf57600080fd5b505afa158015613ec3573d6000803e3d6000fd5b505050506040513d6020811015613ed957600080fd5b505115613f15576040805162461bcd60e51b815260206004820152600560248201526476616c313360d81b604482015290519081900360640190fd5b600e5460408051635b8de71560e11b81526001600160a01b0384811660048301529151919092169163b71bce2a916024808301926020929190829003018186803b158015613f6257600080fd5b505afa158015613f76573d6000803e3d6000fd5b505050506040513d6020811015613f8c57600080fd5b505115613fc8576040805162461bcd60e51b81526020600482015260056024820152641d985b0c4d60da1b604482015290519081900360640190fd5b600d54604080516370a0823160e01b81526001600160a01b038481166004830152915191909216916370a08231916024808301926020929190829003018186803b15801561401557600080fd5b505afa158015614029573d6000803e3d6000fd5b505050506040513d602081101561403f57600080fd5b50511561407b576040805162461bcd60e51b815260206004820152600560248201526476616c313560d81b604482015290519081900360640190fd5b600e54604080516370a0823160e01b81526001600160a01b038481166004830152915191909216916370a08231916024808301926020929190829003018186803b1580156140c857600080fd5b505afa1580156140dc573d6000803e3d6000fd5b505050506040513d60208110156140f257600080fd5b5051156133e0576040805162461bcd60e51b81526020600482015260056024820152643b30b6189b60d91b604482015290519081900360640190fd5b60008211614175576040805162461bcd60e51b815260206004820152600f60248201526e1a5b9d985b1a590817d85b5bdd5b9d608a1b604482015290519081900360640190fd5b600754604080516310c1c10360e01b81526001600160a01b038781166004830152915160009392909216916310c1c10391602480820192602092909190829003018186803b1580156141c657600080fd5b505afa1580156141da573d6000803e3d6000fd5b505050506040513d60208110156141f057600080fd5b50516009546008546040805163098bf59d60e01b81526001600160a01b038a8116600483018190529381166024830152604482018990526064820193909352905193945091169163098bf59d9160848082019260009290919082900301818387803b15801561425e57600080fd5b505af1158015614272573d6000803e3d6000fd5b50506008546007546040805163098bf59d60e01b81526001600160a01b038b8116600483018190529381166024830152604482018a90526064820193909352905191909216935063098bf59d9250608480830192600092919082900301818387803b1580156142e057600080fd5b505af11580156142f4573d6000803e3d6000fd5b50506007546040805163098bf59d60e01b81526001600160a01b038a8116600483018190528a82166024840152604483018a90526064830152915191909216935063098bf59d9250608480830192600092919082900301818387803b15801561435c57600080fd5b505af1158015614370573d6000803e3d6000fd5b50505050811561469e57600854604080516309f4173d60e11b81526001600160a01b03888116600483018190526024830152915191909216916313e82e7a9160448083019260209291908290030181600087803b1580156143d057600080fd5b505af11580156143e4573d6000803e3d6000fd5b505050506040513d60208110156143fa57600080fd5b505060095460055460408051637aeceb1f60e11b81526001600160a01b03898116600483015292831660248201529051600093929092169163f5d9d63e91604480820192602092909190829003018186803b15801561445857600080fd5b505afa15801561446c573d6000803e3d6000fd5b505050506040513d602081101561448257600080fd5b5051905080156145955760006144a28361449c8488614e7a565b90614ed3565b6009546005546040805163098bf59d60e01b81526001600160a01b038c8116600483018190529381166024830152604482018690526064820193909352905193945091169163098bf59d9160848082019260009290919082900301818387803b15801561450e57600080fd5b505af1158015614522573d6000803e3d6000fd5b505060055460408051632770a7eb60e21b81526001600160a01b038c81166004830152602482018790529151919092169350639dc29fac9250604480830192600092919082900301818387803b15801561457b57600080fd5b505af115801561458f573d6000803e3d6000fd5b50505050505b600554604080516370a0823160e01b81526001600160a01b038981166004830152915160009392909216916370a0823191602480820192602092909190829003018186803b1580156145e657600080fd5b505afa1580156145fa573d6000803e3d6000fd5b505050506040513d602081101561461057600080fd5b50519050801561469b57600061462a8461449c8489614e7a565b60055460408051632770a7eb60e21b81526001600160a01b038c81166004830152602482018590529151939450911691639dc29fac9160448082019260009290919082900301818387803b15801561468157600080fd5b505af1158015614695573d6000803e3d6000fd5b50505050505b50505b6146a7856146f8565b604080516001600160a01b0380881682528616602082015280820185905290517fac0c8166600159e900701cec05aa4a00daf39046243c6c1d5e3ab4efdea38ca69181900360600190a15050505050565b6000601054600160a81b900460ff16600281111561471257fe5b141561471d576133e0565b6001601054600160a81b900460ff16600281111561473757fe5b14156147cc57600754604080516310c1c10360e01b81526001600160a01b038481166004830152915160009392909216916310c1c10391602480820192602092909190829003018186803b15801561478e57600080fd5b505afa1580156147a2573d6000803e3d6000fd5b505050506040513d60208110156147b857600080fd5b505190506147c68282614f12565b506133e0565b6002601054600160a81b900460ff1660028111156147e657fe5b141561483d57600954604080516310c1c10360e01b81526001600160a01b038481166004830152915160009392909216916310c1c10391602480820192602092909190829003018186803b15801561478e57600080fd5b6040805162461bcd60e51b815260206004820152601b60248201527a756e737570706f7274656420766f74696e67506f7765725479706560281b604482015290519081900360640190fd5b6000828201838110156148e0576040805162461bcd60e51b815260206004820152601b60248201527a536166654d6174683a206164646974696f6e206f766572666c6f7760281b604482015290519081900360640190fd5b90505b92915050565b600854604080516309f4173d60e11b81526001600160a01b03848116600483018190526024830152915191909216916313e82e7a9160448083019260209291908290030181600087803b15801561493f57600080fd5b505af1158015614953573d6000803e3d6000fd5b505050506040513d602081101561496957600080fd5b5050600554604080516370a0823160e01b81526001600160a01b038481166004830152915160009392909216916370a0823191602480820192602092909190829003018186803b1580156149bc57600080fd5b505afa1580156149d0573d6000803e3d6000fd5b505050506040513d60208110156149e657600080fd5b50519050806149f557506133e0565b600754604080516310c1c10360e01b81526001600160a01b038581166004830152915160009392909216916310c1c10391602480820192602092909190829003018186803b158015614a4657600080fd5b505afa158015614a5a573d6000803e3d6000fd5b505050506040513d6020811015614a7057600080fd5b5051600f54909150600090614a8e906127109061449c908590614e7a565b60095460055460408051637aeceb1f60e11b81526001600160a01b03898116600483015292831660248201529051939450600093919092169163f5d9d63e916044808301926020929190829003018186803b158015614aec57600080fd5b505afa158015614b00573d6000803e3d6000fd5b505050506040513d6020811015614b1657600080fd5b5051905081811415614b2b57505050506133e0565b81811115614bcd576000614b3f82846150c7565b6009546005546040805163098bf59d60e01b81526001600160a01b038b8116600483018190529381166024830152604482018690526064820193909352905193945091169163098bf59d9160848082019260009290919082900301818387803b158015614bab57600080fd5b505af1158015614bbf573d6000803e3d6000fd5b5050505050505050506133e0565b6000614bd983836150c7565b905080851115614be7578094505b60095460055460408051631e42d69b60e21b81526001600160a01b038a81166004830181905260248301529283166044820152606481018990529051919092169163790b5a6c91608480830192600092919082900301818387803b158015614c4e57600080fd5b505af1158015614c62573d6000803e3d6000fd5b50505050505050505050565b6060614cc3826040518060400160405280602081526020017f5361666545524332303a206c6f772d6c6576656c2063616c6c206661696c6564815250856001600160a01b03166151099092919063ffffffff16565b805190915015610a7f57808060200190516020811015614ce257600080fd5b5051610a7f5760405162461bcd60e51b815260040180806020018281038252602a81526020018061548e602a913960400191505060405180910390fd5b600754604080516309f4173d60e11b81526001600160a01b03848116600483018190526024830152915160009392909216916313e82e7a9160448082019260209290919082900301818787803b158015614d7857600080fd5b505af1158015614d8c573d6000803e3d6000fd5b505050506040513d6020811015614da257600080fd5b505190508015614dc657600454614dc690839081906001600160a01b0316846133e3565b614dcf826148e9565b5050565b600a54604080516309f4173d60e11b81526001600160a01b03848116600483018190526024830152915160009392909216916313e82e7a9160448082019260209290919082900301818787803b158015614e2c57600080fd5b505af1158015614e40573d6000803e3d6000fd5b505050506040513d6020811015614e5657600080fd5b505190508015614dcf57600454614dcf90839081906001600160a01b0316846133e3565b600082614e89575060006148e3565b82820282848281614e9657fe5b04146148e05760405162461bcd60e51b815260040180806020018281038252602181526020018061544d6021913960400191505060405180910390fd5b60006148e083836040518060400160405280601a815260200179536166654d6174683a206469766973696f6e206279207a65726f60301b815250615122565b6000601060019054906101000a90046001600160a01b03166001600160a01b03166370a08231846040518263ffffffff1660e01b815260040180826001600160a01b0316815260200191505060206040518083038186803b158015614f7657600080fd5b505afa158015614f8a573d6000803e3d6000fd5b505050506040513d6020811015614fa057600080fd5b5051905081811415614fb25750614dcf565b81811115615041576000614fc682846150c7565b60105460408051632770a7eb60e21b81526001600160a01b0388811660048301526024820185905291519394506101009092041691639dc29fac9160448082019260009290919082900301818387803b15801561502257600080fd5b505af1158015615036573d6000803e3d6000fd5b505050505050614dcf565b600061504d83836150c7565b601054604080516340c10f1960e01b81526001600160a01b03888116600483015260248201859052915193945061010090920416916340c10f199160448082019260009290919082900301818387803b1580156150a957600080fd5b505af11580156150bd573d6000803e3d6000fd5b5050505050505050565b60006148e083836040518060400160405280601e81526020017f536166654d6174683a207375627472616374696f6e206f766572666c6f7700008152506151c4565b6060615118848460008561521e565b90505b9392505050565b600081836151ae5760405162461bcd60e51b81526004018080602001828103825283818151815260200191508051906020019080838360005b8381101561517357818101518382015260200161515b565b50505050905090810190601f1680156151a05780820380516001836020036101000a031916815260200191505b509250505060405180910390fd5b5060008385816151ba57fe5b0495945050505050565b600081848411156152165760405162461bcd60e51b815260206004820181815283516024840152835190928392604490910191908501908083836000831561517357818101518382015260200161515b565b505050900390565b60608247101561525f5760405162461bcd60e51b81526004018080602001828103825260268152602001806154276026913960400191505060405180910390fd5b6152688561537a565b6152b9576040805162461bcd60e51b815260206004820152601d60248201527f416464726573733a2063616c6c20746f206e6f6e2d636f6e7472616374000000604482015290519081900360640190fd5b60006060866001600160a01b031685876040518082805190602001908083835b602083106152f85780518252601f1990920191602091820191016152d9565b6001836020036101000a03801982511681845116808217855250505050505090500191505060006040518083038185875af1925050503d806000811461535a576040519150601f19603f3d011682016040523d82523d6000602084013e61535f565b606091505b509150915061536f828286615380565b979650505050505050565b3b151590565b6060831561538f57508161511b565b82511561539f5782518084602001fd5b60405162461bcd60e51b815260206004820181815284516024840152845185939192839260440191908501908083836000831561517357818101518382015260200161515b56fe5265656e7472616e637947756172643a207265656e7472616e742063616c6c00476f7665726e61626c653a20666f7262696464656e0000000000000000000000416464726573733a20696e73756666696369656e742062616c616e636520666f722063616c6c536166654d6174683a206d756c7469706c69636174696f6e206f766572666c6f7773656e646572206861732076657374656420746f6b656e7300000000000000005361666545524332303a204552433230206f7065726174696f6e20646964206e6f742073756363656564a2646970667358221220e8d21bd5907e2ed9b20ffbfafd924c18a4362e208dabe0b5aa39b6450f9b18e364736f6c634300060c0033",
  "linkReferences": {},
  "deployedLinkReferences": {}
}