{
  "_format": "hh-sol-artifact-1",
  "contractName": "ChainlinkAggregator4Pyth",
  "sourceName": "contracts/oracle/ChainlinkAggregator4Pyth.sol",
  "abi": [
    {
      "inputs": [
        {
          "internalType": "uint8",
          "name": "_decimals",
          "type": "uint8"
        },
        {
          "internalType": "string",
          "name": "_description",
          "type": "string"
        },
        {
          "internalType": "address",
          "name": "_adapter",
          "type": "address"
        },
        {
          "internalType": "bytes32",
          "name": "_id",
          "type": "bytes32"
        }
      ],
      "stateMutability": "nonpayable",
      "type": "constructor"
    },
    {
      "anonymous": false,
      "inputs": [
        {
          "indexed": true,
          "internalType": "int256",
          "name": "current",
          "type": "int256"
        },
        {
          "indexed": true,
          "internalType": "uint256",
          "name": "roundId",
          "type": "uint256"
        },
        {
          "indexed": false,
          "internalType": "uint256",
          "name": "updatedAt",
          "type": "uint256"
        }
      ],
      "name": "AnswerUpdated",
      "type": "event"
    },
    {
      "anonymous": false,
      "inputs": [
        {
          "indexed": true,
          "internalType": "uint256",
          "name": "roundId",
          "type": "uint256"
        },
        {
          "indexed": true,
          "internalType": "address",
          "name": "startedBy",
          "type": "address"
        },
        {
          "indexed": false,
          "internalType": "uint256",
          "name": "startedAt",
          "type": "uint256"
        }
      ],
      "name": "NewRound",
      "type": "event"
    },
    {
      "anonymous": false,
      "inputs": [
        {
          "indexed": true,
          "internalType": "address",
          "name": "from",
          "type": "address"
        },
        {
          "indexed": true,
          "internalType": "address",
          "name": "to",
          "type": "address"
        }
      ],
      "name": "OwnershipTransferRequested",
      "type": "event"
    },
    {
      "anonymous": false,
      "inputs": [
        {
          "indexed": true,
          "internalType": "address",
          "name": "from",
          "type": "address"
        },
        {
          "indexed": true,
          "internalType": "address",
          "name": "to",
          "type": "address"
        }
      ],
      "name": "OwnershipTransferred",
      "type": "event"
    },
    {
      "inputs": [],
      "name": "acceptOwnership",
      "outputs": [],
      "stateMutability": "nonpayable",
      "type": "function"
    },
    {
      "inputs": [],
      "name": "decimals",
      "outputs": [
        {
          "internalType": "uint8",
          "name": "",
          "type": "uint8"
        }
      ],
      "stateMutability": "view",
      "type": "function"
    },
    {
      "inputs": [],
      "name": "description",
      "outputs": [
        {
          "internalType": "string",
          "name": "",
          "type": "string"
        }
      ],
      "stateMutability": "view",
      "type": "function"
    },
    {
      "inputs": [
        {
          "internalType": "uint256",
          "name": "_roundId",
          "type": "uint256"
        }
      ],
      "name": "getAnswer",
      "outputs": [
        {
          "internalType": "int256",
          "name": "",
          "type": "int256"
        }
      ],
      "stateMutability": "view",
      "type": "function"
    },
    {
      "inputs": [
        {
          "internalType": "uint80",
          "name": "_roundId",
          "type": "uint80"
        }
      ],
      "name": "getRoundData",
      "outputs": [
        {
          "internalType": "uint80",
          "name": "roundId",
          "type": "uint80"
        },
        {
          "internalType": "int256",
          "name": "answer",
          "type": "int256"
        },
        {
          "internalType": "uint256",
          "name": "startedAt",
          "type": "uint256"
        },
        {
          "internalType": "uint256",
          "name": "updatedAt",
          "type": "uint256"
        },
        {
          "internalType": "uint80",
          "name": "answeredInRound",
          "type": "uint80"
        }
      ],
      "stateMutability": "view",
      "type": "function"
    },
    {
      "inputs": [
        {
          "internalType": "uint256",
          "name": "_roundId",
          "type": "uint256"
        }
      ],
      "name": "getTimestamp",
      "outputs": [
        {
          "internalType": "uint256",
          "name": "",
          "type": "uint256"
        }
      ],
      "stateMutability": "view",
      "type": "function"
    },
    {
      "inputs": [
        {
          "internalType": "address",
          "name": "",
          "type": "address"
        }
      ],
      "name": "isKeeper",
      "outputs": [
        {
          "internalType": "bool",
          "name": "",
          "type": "bool"
        }
      ],
      "stateMutability": "view",
      "type": "function"
    },
    {
      "inputs": [],
      "name": "latestAnswer",
      "outputs": [
        {
          "internalType": "int256",
          "name": "",
          "type": "int256"
        }
      ],
      "stateMutability": "view",
      "type": "function"
    },
    {
      "inputs": [],
      "name": "latestAnswerOracle",
      "outputs": [
        {
          "internalType": "int256",
          "name": "",
          "type": "int256"
        }
      ],
      "stateMutability": "view",
      "type": "function"
    },
    {
      "inputs": [],
      "name": "latestAnswerTimestampOracle",
      "outputs": [
        {
          "internalType": "int256",
          "name": "",
          "type": "int256"
        },
        {
          "internalType": "uint256",
          "name": "",
          "type": "uint256"
        }
      ],
      "stateMutability": "view",
      "type": "function"
    },
    {
      "inputs": [],
      "name": "latestRound",
      "outputs": [
        {
          "internalType": "uint256",
          "name": "",
          "type": "uint256"
        }
      ],
      "stateMutability": "view",
      "type": "function"
    },
    {
      "inputs": [],
      "name": "latestRoundData",
      "outputs": [
        {
          "internalType": "uint80",
          "name": "roundId",
          "type": "uint80"
        },
        {
          "internalType": "int256",
          "name": "answer",
          "type": "int256"
        },
        {
          "internalType": "uint256",
          "name": "startedAt",
          "type": "uint256"
        },
        {
          "internalType": "uint256",
          "name": "updatedAt",
          "type": "uint256"
        },
        {
          "internalType": "uint80",
          "name": "answeredInRound",
          "type": "uint80"
        }
      ],
      "stateMutability": "view",
      "type": "function"
    },
    {
      "inputs": [],
      "name": "latestRoundOracle",
      "outputs": [
        {
          "internalType": "uint256",
          "name": "",
          "type": "uint256"
        }
      ],
      "stateMutability": "view",
      "type": "function"
    },
    {
      "inputs": [],
      "name": "latestTimestamp",
      "outputs": [
        {
          "internalType": "uint256",
          "name": "",
          "type": "uint256"
        }
      ],
      "stateMutability": "view",
      "type": "function"
    },
    {
      "inputs": [],
      "name": "latestTimestampOracle",
      "outputs": [
        {
          "internalType": "uint256",
          "name": "",
          "type": "uint256"
        }
      ],
      "stateMutability": "view",
      "type": "function"
    },
    {
      "inputs": [],
      "name": "maxRoundId",
      "outputs": [
        {
          "internalType": "uint256",
          "name": "",
          "type": "uint256"
        }
      ],
      "stateMutability": "view",
      "type": "function"
    },
    {
      "inputs": [],
      "name": "owner",
      "outputs": [
        {
          "internalType": "address",
          "name": "",
          "type": "address"
        }
      ],
      "stateMutability": "view",
      "type": "function"
    },
    {
      "inputs": [
        {
          "internalType": "address",
          "name": "_keeper",
          "type": "address"
        },
        {
          "internalType": "bool",
          "name": "_isKeeper",
          "type": "bool"
        }
      ],
      "name": "setKeeper",
      "outputs": [],
      "stateMutability": "nonpayable",
      "type": "function"
    },
    {
      "inputs": [
        {
          "internalType": "int192[]",
          "name": "answers",
          "type": "int192[]"
        }
      ],
      "name": "setLatestAnswer",
      "outputs": [],
      "stateMutability": "nonpayable",
      "type": "function"
    },
    {
      "inputs": [
        {
          "internalType": "address",
          "name": "_to",
          "type": "address"
        }
      ],
      "name": "transferOwnership",
      "outputs": [],
      "stateMutability": "nonpayable",
      "type": "function"
    },
    {
      "inputs": [],
      "name": "version",
      "outputs": [
        {
          "internalType": "uint256",
          "name": "",
          "type": "uint256"
        }
      ],
      "stateMutability": "view",
      "type": "function"
    }
  ],
  "bytecode": "0x60a06040523480156200001157600080fd5b5060405162001346380380620013468339810160408190526200003491620000cc565b600080546001600160a01b0319163317905560ff841660805260066200005b848262000265565b506001805463ffffffff60a01b19169055600280546001600160a01b0319166001600160a01b03939093169290921790915560035550620003319050565b634e487b7160e01b600052604160045260246000fd5b80516001600160a01b0381168114620000c757600080fd5b919050565b60008060008060808587031215620000e357600080fd5b845160ff81168114620000f557600080fd5b602086810151919550906001600160401b03808211156200011557600080fd5b818801915088601f8301126200012a57600080fd5b8151818111156200013f576200013f62000099565b604051601f8201601f19908116603f011681019083821181831017156200016a576200016a62000099565b816040528281528b868487010111156200018357600080fd5b600093505b82841015620001a7578484018601518185018701529285019262000188565b6000868483010152809850505050505050620001c660408601620000af565b6060959095015193969295505050565b600181811c90821680620001eb57607f821691505b6020821081036200020c57634e487b7160e01b600052602260045260246000fd5b50919050565b601f8211156200026057600081815260208120601f850160051c810160208610156200023b5750805b601f850160051c820191505b818110156200025c5782815560010162000247565b5050505b505050565b81516001600160401b0381111562000281576200028162000099565b6200029981620002928454620001d6565b8462000212565b602080601f831160018114620002d15760008415620002b85750858301515b600019600386901b1c1916600185901b1785556200025c565b600085815260208120601f198616915b828110156200030257888601518255948401946001909101908401620002e1565b5085821015620003215787850151600019600388901b60f8161c191681555b5050505050600190811b01905550565b608051610fdd62000369600039600081816101110152818161050b015281816106f101528181610a5f0152610bb50152610fdd6000f3fe608060405234801561001057600080fd5b50600436106101075760003560e01c8063313ce5671461010c5780634bc6315a1461014a57806350d25bcd1461016357806354fd4d501461018a578063668a0f02146101925780636ba42aaa146101a75780637284e416146101da57806379ba5097146101ef5780638205bf6a146101f95780638da5cb5b1461022d5780638e58c088146102585780639a6fc8f514610260578063b5ab58dc146102a7578063b633620c146102ba578063b958d971146102cd578063d1b9e853146102d5578063dd9b2314146102e8578063e1647f2b146102fb578063f2fde38b14610303578063f5613c6f14610316578063feaf968c14610333575b600080fd5b6101337f000000000000000000000000000000000000000000000000000000000000000081565b60405160ff90911681526020015b60405180910390f35b61015563ffffffff81565b604051908152602001610141565b600154600160a01b900463ffffffff1660009081526004602052604090205460170b610155565b610155600481565b600154600160a01b900463ffffffff16610155565b6101ca6101b5366004610c7f565b60056020526000908152604090205460ff1681565b6040519015158152602001610141565b6101e2610389565b6040516101419190610c9a565b6101f761041b565b005b600154600160a01b900463ffffffff16600090815260046020526040902054600160c01b90046001600160401b0316610155565b600054610240906001600160a01b031681565b6040516001600160a01b039091168152602001610141565b6101556104ca565b61027361026e366004610ce8565b61058e565b604080516001600160501b03968716815260208101959095528401929092526060830152909116608082015260a001610141565b6101556102b5366004610d11565b61063f565b6101556102c8366004610d11565b610671565b6101556106b0565b6101f76102e3366004610d2a565b61074c565b6101f76102f6366004610d8e565b6107a1565b610155610a1e565b6101f7610311366004610c7f565b610af4565b61031e610b6f565b60408051928352602083019190915201610141565b610273600154600160a01b900463ffffffff16600081815260046020908152604091829020825180840190935254601781900b808452600160c01b9091046001600160401b031692909101829052919281908490565b60606006805461039890610e52565b80601f01602080910402602001604051908101604052809291908181526020018280546103c490610e52565b80156104115780601f106103e657610100808354040283529160200191610411565b820191906000526020600020905b8154815290600101906020018083116103f457829003601f168201915b5050505050905090565b6001546001600160a01b031633146104735760405162461bcd60e51b815260206004820152601660248201527526bab9ba10313290383937b837b9b2b21037bbb732b960511b60448201526064015b60405180910390fd5b60008054336001600160a01b0319808316821784556001805490911690556040516001600160a01b0390921692909183917f8be0079c531659141344cd1fd0a4f28419497f9722a3daafe3b4186f6b6457e091a350565b6002546000906001600160a01b03161561057a576002546003546040516303ab61a360e01b81526000926001600160a01b0316916303ab61a39161053391907f000000000000000000000000000000000000000000000000000000000000000090600401610e8c565b6040805180830381865afa15801561054f573d6000803e3d6000fd5b505050506040513d601f19601f820116820180604052508101906105739190610e9d565b9392505050565b50600154600160a01b900463ffffffff1690565b600080600080600063ffffffff866001600160501b031611156040518060400160405280600f81526020016e139bc819185d18481c1c995cd95b9d608a1b815250906105ed5760405162461bcd60e51b815260040161046a9190610c9a565b5050505063ffffffff8316600090815260046020908152604091829020825180840190935254601781900b808452600160c01b9091046001600160401b03169290910182905293949092508291508490565b600063ffffffff82111561065557506000919050565b5063ffffffff1660009081526004602052604090205460170b90565b600063ffffffff82111561068757506000919050565b5063ffffffff16600090815260046020526040902054600160c01b90046001600160401b031690565b6002546000906001600160a01b031615610719576002546003546040516303ab61a360e01b81526000926001600160a01b0316916303ab61a39161053391907f000000000000000000000000000000000000000000000000000000000000000090600401610e8c565b50600154600160a01b900463ffffffff16600090815260046020526040902054600160c01b90046001600160401b031690565b6000546001600160a01b031633146107765760405162461bcd60e51b815260040161046a90610ec1565b6001600160a01b03919091166000908152600560205260409020805460ff1916911515919091179055565b3360009081526005602052604090205460ff166107fb5760405162461bcd60e51b81526020600482015260186024820152773ab83230ba329030b739bbb2b91d103337b93134b23232b760411b604482015260640161046a565b60018054600160a01b900463ffffffff1690601461081883610f07565b91906101000a81548163ffffffff021916908363ffffffff1602179055505060005b600182516108489190610f2a565b8110156108ee5760008261085d836001610f43565b8151811061086d5761086d610f56565b602002602001015160170b83838151811061088a5761088a610f56565b602002602001015160170b13159050806108db5760405162461bcd60e51b8152602060048201526012602482015271185b9cddd95c9cc81b9bdd081cdbdc9d195960721b604482015260640161046a565b50806108e681610f6c565b91505061083a565b50600081600283516109009190610f85565b8151811061091057610910610f56565b602090810291909101810151604080518082018252601783900b81526001600160401b03428181168387019081526001805463ffffffff600160a01b91829004811660009081526004909a52878a2096519351909516600160c01b026001600160c01b03909316929092179094559254935194965091909204909116917f0109fc6f55cf40689f02fbaad7af7fe7bbac8a3d2186600afc7d3e10cac60271916109bc9190815260200190565b60405180910390a3600160149054906101000a900463ffffffff1663ffffffff168160170b7f0559884fd3a460db3073b7fc896cc77986f16e378210ded43186175bf646fc5f42604051610a1291815260200190565b60405180910390a35050565b6002546000906001600160a01b031615610ace576002546003546040516303ab61a360e01b81526000926001600160a01b0316916303ab61a391610a8791907f000000000000000000000000000000000000000000000000000000000000000090600401610e8c565b6040805180830381865afa158015610aa3573d6000803e3d6000fd5b505050506040513d601f19601f82011682018060405250810190610ac79190610e9d565b5092915050565b50600154600160a01b900463ffffffff1660009081526004602052604090205460170b90565b6000546001600160a01b03163314610b1e5760405162461bcd60e51b815260040161046a90610ec1565b600180546001600160a01b0319166001600160a01b0383811691821790925560008054604051929316917fed8889f560326eb138920d842192f0eb3dd22b4f139c87a2c57538e05bae12789190a350565b60025460009081906001600160a01b031615610c28576002546003546040516303ab61a360e01b815260009283926001600160a01b03909116916303ab61a391610bdd917f000000000000000000000000000000000000000000000000000000000000000090600401610e8c565b6040805180830381865afa158015610bf9573d6000803e3d6000fd5b505050506040513d601f19601f82011682018060405250810190610c1d9190610e9d565b909590945092505050565b5050600154600160a01b900463ffffffff16600090815260046020526040902054601781900b91600160c01b9091046001600160401b031690565b80356001600160a01b0381168114610c7a57600080fd5b919050565b600060208284031215610c9157600080fd5b61057382610c63565b600060208083528351808285015260005b81811015610cc757858101830151858201604001528201610cab565b506000604082860101526040601f19601f8301168501019250505092915050565b600060208284031215610cfa57600080fd5b81356001600160501b038116811461057357600080fd5b600060208284031215610d2357600080fd5b5035919050565b60008060408385031215610d3d57600080fd5b610d4683610c63565b915060208301358015158114610d5b57600080fd5b809150509250929050565b634e487b7160e01b600052604160045260246000fd5b8035601781900b8114610c7a57600080fd5b60006020808385031215610da157600080fd5b82356001600160401b0380821115610db857600080fd5b818501915085601f830112610dcc57600080fd5b813581811115610dde57610dde610d66565b8060051b604051601f19603f83011681018181108582111715610e0357610e03610d66565b604052918252848201925083810185019188831115610e2157600080fd5b938501935b82851015610e4657610e3785610d7c565b84529385019392850192610e26565b98975050505050505050565b600181811c90821680610e6657607f821691505b602082108103610e8657634e487b7160e01b600052602260045260246000fd5b50919050565b91825260ff16602082015260400190565b60008060408385031215610eb057600080fd5b505080516020909101519092909150565b60208082526016908201527527b7363c9031b0b63630b1363290313c9037bbb732b960511b604082015260600190565b634e487b7160e01b600052601160045260246000fd5b600063ffffffff808316818103610f2057610f20610ef1565b6001019392505050565b81810381811115610f3d57610f3d610ef1565b92915050565b80820180821115610f3d57610f3d610ef1565b634e487b7160e01b600052603260045260246000fd5b600060018201610f7e57610f7e610ef1565b5060010190565b600082610fa257634e487b7160e01b600052601260045260246000fd5b50049056fea26469706673582212208262a976a9c8819708c81c5d7619f016a36c0334be999541c90a7a8fb5ea513964736f6c63430008140033",
  "linkReferences": {},
  "deployedLinkReferences": {}
}